{
  "contractName": "MyContract",
  "abi": [
    {
      "inputs": [
        {
          "internalType": "address",
          "name": "",
          "type": "address"
        }
      ],
      "name": "funders",
      "outputs": [
        {
          "internalType": "bool",
          "name": "",
          "type": "bool"
        }
      ],
      "stateMutability": "view",
      "type": "function"
    },
    {
      "inputs": [
        {
          "internalType": "uint256",
          "name": "",
          "type": "uint256"
        }
      ],
      "name": "lutFunders",
      "outputs": [
        {
          "internalType": "address",
          "name": "",
          "type": "address"
        }
      ],
      "stateMutability": "view",
      "type": "function"
    },
    {
      "inputs": [],
      "name": "numOfFunders",
      "outputs": [
        {
          "internalType": "uint256",
          "name": "",
          "type": "uint256"
        }
      ],
      "stateMutability": "view",
      "type": "function"
    },
    {
      "stateMutability": "payable",
      "type": "receive"
    },
    {
      "inputs": [],
      "name": "addFunds",
      "outputs": [],
      "stateMutability": "payable",
      "type": "function"
    },
    {
      "inputs": [
        {
          "internalType": "uint256",
          "name": "index",
          "type": "uint256"
        }
      ],
      "name": "getFundersIndex",
      "outputs": [
        {
          "internalType": "address",
          "name": "",
          "type": "address"
        }
      ],
      "stateMutability": "view",
      "type": "function"
    },
    {
      "inputs": [],
      "name": "getAllFunders",
      "outputs": [
        {
          "internalType": "address[]",
          "name": "",
          "type": "address[]"
        }
      ],
      "stateMutability": "view",
      "type": "function"
    },
    {
      "inputs": [
        {
          "internalType": "uint256",
          "name": "withdrawAmmount",
          "type": "uint256"
        }
      ],
      "name": "withdraw",
      "outputs": [],
      "stateMutability": "nonpayable",
      "type": "function"
    }
  ],
  "bytecode": "0x608060405234801561001057600080fd5b5061080c806100206000396000f3fe6080604052600436106100745760003560e01c80632e1a7d4d1161004e5780632e1a7d4d146101375780636fbbb55d14610160578063a26759cb1461018b578063af7f2c9b146101955761007b565b8063031b3677146100805780631f8947ea146100bd5780632e1472de146100fa5761007b565b3661007b57005b600080fd5b34801561008c57600080fd5b506100a760048036038101906100a29190610507565b6101c0565b6040516100b4919061054f565b60405180910390f35b3480156100c957600080fd5b506100e460048036038101906100df91906105a0565b6101e0565b6040516100f191906105dc565b60405180910390f35b34801561010657600080fd5b50610121600480360381019061011c91906105a0565b610213565b60405161012e91906105dc565b60405180910390f35b34801561014357600080fd5b5061015e600480360381019061015991906105a0565b610250565b005b34801561016c57600080fd5b5061017561029a565b60405161018291906106b5565b60405180910390f35b610193610393565b005b3480156101a157600080fd5b506101aa61049e565b6040516101b791906106e6565b60405180910390f35b60026020528060005260406000206000915054906101000a900460ff1681565b60016020528060005260406000206000915054906101000a900473ffffffffffffffffffffffffffffffffffffffff1681565b60006001600083815260200190815260200160002060009054906101000a900473ffffffffffffffffffffffffffffffffffffffff169050919050565b3373ffffffffffffffffffffffffffffffffffffffff166108fc829081150290604051600060405180830381858888f19350505050158015610296573d6000803e3d6000fd5b5050565b60606000805467ffffffffffffffff8111156102b9576102b8610701565b5b6040519080825280602002602001820160405280156102e75781602001602082028036833780820191505090505b50905060005b60005481101561038b576001600082815260200190815260200160002060009054906101000a900473ffffffffffffffffffffffffffffffffffffffff1682828151811061033e5761033d610730565b5b602002602001019073ffffffffffffffffffffffffffffffffffffffff16908173ffffffffffffffffffffffffffffffffffffffff168152505080806103839061078e565b9150506102ed565b508091505090565b6000339050600260008273ffffffffffffffffffffffffffffffffffffffff1673ffffffffffffffffffffffffffffffffffffffff16815260200190815260200160002060009054906101000a900460ff1661049b576000805490506001600260008473ffffffffffffffffffffffffffffffffffffffff1673ffffffffffffffffffffffffffffffffffffffff16815260200190815260200160002060006101000a81548160ff021916908315150217905550816001600083815260200190815260200160002060006101000a81548173ffffffffffffffffffffffffffffffffffffffff021916908373ffffffffffffffffffffffffffffffffffffffff160217905550505b50565b60005481565b600080fd5b600073ffffffffffffffffffffffffffffffffffffffff82169050919050565b60006104d4826104a9565b9050919050565b6104e4816104c9565b81146104ef57600080fd5b50565b600081359050610501816104db565b92915050565b60006020828403121561051d5761051c6104a4565b5b600061052b848285016104f2565b91505092915050565b60008115159050919050565b61054981610534565b82525050565b60006020820190506105646000830184610540565b92915050565b6000819050919050565b61057d8161056a565b811461058857600080fd5b50565b60008135905061059a81610574565b92915050565b6000602082840312156105b6576105b56104a4565b5b60006105c48482850161058b565b91505092915050565b6105d6816104c9565b82525050565b60006020820190506105f160008301846105cd565b92915050565b600081519050919050565b600082825260208201905092915050565b6000819050602082019050919050565b61062c816104c9565b82525050565b600061063e8383610623565b60208301905092915050565b6000602082019050919050565b6000610662826105f7565b61066c8185610602565b935061067783610613565b8060005b838110156106a857815161068f8882610632565b975061069a8361064a565b92505060018101905061067b565b5085935050505092915050565b600060208201905081810360008301526106cf8184610657565b905092915050565b6106e08161056a565b82525050565b60006020820190506106fb60008301846106d7565b92915050565b7f4e487b7100000000000000000000000000000000000000000000000000000000600052604160045260246000fd5b7f4e487b7100000000000000000000000000000000000000000000000000000000600052603260045260246000fd5b7f4e487b7100000000000000000000000000000000000000000000000000000000600052601160045260246000fd5b60006107998261056a565b91507fffffffffffffffffffffffffffffffffffffffffffffffffffffffffffffffff82036107cb576107ca61075f565b5b60018201905091905056fea2646970667358221220b3be61297e77ddeef1898081bfea50e948cd435f781d1b358234745b2d778aff64736f6c634300080d0033",
  "immutableReferences": {},
  "source": "// SPDX-License-Identifier: MIT\r\npragma solidity >=0.4.22 <0.9.0;\r\n\r\ncontract MyContract {\r\n    uint256 public numOfFunders;\r\n    mapping(uint256 => address) public lutFunders;\r\n    mapping(address => bool) public funders;\r\n\r\n    receive() external payable {}\r\n    \r\n    function addFunds() external payable{\r\n        address funder = msg.sender;\r\n\r\n        if(!funders[funder])\r\n        {\r\n            uint256 index = numOfFunders;\r\n            funders[funder] = true;\r\n            lutFunders[index] = funder;\r\n        }\r\n    }\r\n\r\n    function getFundersIndex(uint256 index) external view returns(address)\r\n    {\r\n        return lutFunders[index];\r\n    }    \r\n    \r\n    function getAllFunders() external view returns (address[] memory)\r\n    {\r\n        address[] memory _funders = new address[](numOfFunders);\r\n        for(uint256 i = 0; i< numOfFunders; i++)\r\n        {\r\n            _funders[i] = lutFunders[i];\r\n        }\r\n        return _funders;\r\n    } \r\n\r\n    function withdraw(uint256 withdrawAmmount) external{\r\n        payable(msg.sender).transfer(withdrawAmmount);\r\n    }\r\n\r\n    modifier limitWithdraw(uint256 withdrawAmmount)\r\n    {\r\n        require(withdrawAmmount <= 1 * (10**18), \"Cannot withdraw\");\r\n        _;\r\n    }\r\n\r\n}",
  "sourcePath": "C:\\Users\\03062\\my-app\\contracts\\MyContract.sol",
  "compiler": {
    "name": "solc",
    "version": "0.8.13+commit.abaa5c0e.Emscripten.clang"
  },
  "schemaVersion": "3.4.16",
  "updatedAt": "2024-05-15T07:28:11.420Z",
  "devdoc": {
    "kind": "dev",
    "methods": {},
    "version": 1
  },
  "userdoc": {
    "kind": "user",
    "methods": {},
    "version": 1
  }
}